:100000000C9464000C9481000C9481000C94810089
:100010000C9481000C9481000C9481000C9481005C
:100020000C9481000C9481000C9481000C9481004C
:100030000C9481000C9481000C9481000C9481003C
:100040000C9481000C9481000C9481000C9481002C
:100050000C9481000C9481000C94FF01510A802AB9
:100060000000000A510A000059551801111E111B09
:10007000500B411B411F1101511F511B000000007B
:1000800000000000000000000000510F91394114F1
:100090009131411E410E411D500F802010154886A0
:1000A0004014780570855115510E5195518E21904F
:1000B00081205015484450C528C028200950000010
:1000C000000000000000000011241FBECFEFD4E0AC
:1000D000DEBFCDBF11E0A0E0B1E0EAEAFDE002C082
:1000E00005900D92AC30B107D9F711E0ACE0B1E06A
:1000F00001C01D92AF33B107E1F70E94AC020C942E
:10010000D3060C94000010926B0010926C001092B9
:100110007E0010927F0080E090E00895259A2D984F
:10012000A0E8B0E08C918F7380688C93E1E8F0E0F8
:100130008081877E806180838C918C7F8C9380818D
:10014000887F8160808380E090E00895109289002C
:100150001092880087EA91E60197F1F700C000004D
:1001600080E090E008951816190644F4E3EFF1E0FA
:100170003197F1F700C000000197F5CF0895109274
:1001800089001092880020EAAC01249FC001259FBD
:10019000900D11240E94B30080E090E0089524EFB8
:1001A00031E0309389002093880020EAAC01249F3D
:1001B000C001259F900D11240E94B3000E94A6004B
:1001C00080E090E00895909387008093860084EF0C
:1001D00091E090938900809388002FEF89EF90E061
:1001E000215080409040E1F700C000000E94A6002E
:1001F00080E090E0089520E08A3018F02F5F8A5068
:10020000FBCF90E1299F90011124822B0895843621
:1002100040F09CE9980F943638F0885C22E030E09A
:1002200006C020E030E003C0892F21E030E044E048
:10023000220F331F4A95E1F78A3020F02F5F3F4F9E
:100240008A50FACF94E0220F331F9A95E1F7A90163
:10025000482BCA01089520910F012111FCCFA5E27E
:10026000B1E020E030E0422FFC01E20FF31F549197
:10027000552349F02F5F3F4F2A31310519F0E491A2
:10028000ED93F1CF49E1E42FF0E0EB5DFE4F1082FA
:10029000473048F081E08093100110923E0183E0E6
:1002A00080930E0104C01092100110923E0181E073
:1002B00080930F01089520910F012111FCCFFC01C3
:1002C000A5E2B1E080E09191992329F0893119F0FC
:1002D0009D938F5FF8CFE82FF0E0EB5DFE4F10822B
:1002E000873048F081E08093100110923E0183E056
:1002F00080930E0104C01092100110923E0181E023
:1003000080930F010895893128F4E82FF0E0EB5D28
:10031000FE4F60830895E5E2F1E080E2819391E091
:10032000EE33F907D9F7089580930C010895909161
:100330000F019111FCCF6093100110923E01809348
:100340000F01089510920D0108956630A0F596ED05
:10035000980F913568F4813608F08F7D8A5290E0CD
:10036000880F991F845A9F4FFC012591349102C038
:1003700020E030E0A62FA17060FF02C07FE001C046
:1003800070EF6695E62FF0E0EF5EFE4FCF014496EA
:10039000522F5F7044E0369527954A95E1F7AA23DE
:1003A00011F05295507F40814723452B408335966D
:1003B000E817F90769F7089591E0811101C090E00D
:1003C0009195E1E1F1E0919381E0E532F807D9F709
:1003D000089580E00E94DC018FE08093E70087EBC6
:1003E0008093E50087E08093E600E4EEF0E080ECA7
:1003F000808380818860808310920F0108957894B3
:100400001F920F920FB60F921124FF920F931F931A
:100410002F933F934F935F936F937F938F939F930C
:10042000AF93BF93CF93DF93EF93FF93809101013D
:1004300081508093010190911001992371F08111F5
:100440000EC080910E01811104C081E080930F01E4
:1004500006C0815080930E0102C010923E0180912F
:100460000F01813009F051C0F0900D01C0E0D0E0E3
:1004700010E000E06C2F80913E019E01280F311D9D
:1004800087FD3A9537FD15C0111113C080913E01CB
:10049000FE01EB5DFE4FE80FF11D87FDFA958081AF
:1004A000082F001F0027001F8F7721F411E01C0F79
:1004B00001C080E2002321F034E03F1508F480E21F
:1004C0000E94A5012196C630D105A1F6A1E1B1E0B7
:1004D000ECEEF0E08D918193E11581E0F807D1F722
:1004E00080910C01882321F081E08093F40002C008
:1004F0001092F400113011F48AEF03C080913E0194
:100500008F5F80933E0110920F0180910101811154
:1005100003C083E08093010180910D018A3019F4BA
:1005200010920D0103C08F5F80930D01FF91EF9139
:10053000DF91CF91BF91AF919F918F917F916F91FB
:100540005F914F913F912F911F910F91FF900F90CD
:100550000FBE0F901F901895CF93DF93CDB7DEB7E6
:1005600060970FB6F894DEBF0FBECDBFF8940E941F
:1005700083000E94E9010E948E00789488E08F93A6
:1005800080EE8F9382E091E09F938F931F9280E1A2
:100590008F938E010F5F1F4F1F930F930E94F403E1
:1005A00060E0C8010E945B010FB6F894DEBF0FBE89
:1005B000CDBF04EF11E08FED882E8BE0982E97EFE2
:1005C000E92E99E0F92E21E3A22E2BE0B22E37EA94
:1005D000C32E36E0D32E4DEE642E45E0742E88E710
:1005E00097E00E94E30088E797E00E94E30088E735
:1005F00097E00E94E30088E797E00E94E30088EE1E
:1006000097E00E94E30080EE98E00E94E30088E714
:1006100097E0909387008093860010938900009361
:10062000880084E090E00E94CF000E94A60084E051
:1006300090E00E94BF0081E090E00E94BF00909295
:1006400087008092860010938900009388008FE1D4
:100650009EE40197F1F700C000000E94A6008FED14
:100660009BE00E94E30081E090E00E94BF008FEDDC
:100670009BE00E94E3008FED9BE00E94E30088E78F
:1006800097E00E94E30088EE97E0909387008093C4
:100690008600109389000093880085E090E00E9416
:1006A000CF000E94A60080EE98E090938700809390
:1006B0008600109389000093880084E090E00E94F7
:1006C000CF000E94A600F0928700E092860010936F
:1006D00089000093880085E090E00E94CF000E948E
:1006E000A600B0928700A092860010938900009324
:1006F000880084E090E00E94CF000E94A600F09263
:100700008700E0928600109389000093880085E0BE
:1007100090E00E94CF000E94A600D0928700C09275
:100720008600109389000093880084E090E00E9486
:10073000CF000E94A600F0928700E09286001093FE
:1007400089000093880085E090E00E94CF000E941D
:10075000A600D0928700C092860010938900009373
:10076000880084E090E00E94CF000E94A600709272
:1007700087006092860010938900009388008FE1C3
:100780009EE40197F1F700C000000E94A60087EAEE
:1007900096E00E94E30088E797E00E94E30088EE7D
:1007A00097E09093870080938600109389000093D0
:1007B000880084E090E00E94CF000E94A60088E7B5
:1007C00097E09093870080938600109389000093B0
:1007D000880085E090E00E94CF000E94A60088E09B
:1007E00090E00E94BF00FBCEAEE0B0E0EAEFF3E0A5
:1007F0000C94AA060D891E898F89988D26E02C837A
:100800001A83098397FF02C080E090E801979E83D6
:100810008D83AE01455E5F4F698D7A8DCE01019665
:100820000E9424044D815E8157FD0AC02F813885C6
:10083000421753070CF49A01F801E20FF31F1082DC
:100840002E96E4E00C94C606ACE0B0E0EAE2F4E0F8
:100850000C949C067C016B018A01FC0117821682B4
:10086000838181FFBDC1CE0101964C01F7019381C7
:10087000F60193FD859193FF81916F01882309F41F
:10088000ABC1853239F493FD859193FF81916F015E
:10089000853229F4B70190E00E940C06E7CF512C75
:1008A000312C20E02032A0F48B3269F030F4803219
:1008B00059F0833269F420612CC08D3239F08033D5
:1008C00039F4216026C02260246023C0286021C042
:1008D00027FD27C030ED380F3A3078F426FF06C0E8
:1008E000FAE05F9E300D1124532E13C08AE0389E2B
:1008F000300D1124332E20620CC08E3221F426FDDF
:100900006BC1206406C08C3611F4206802C08836A2
:1009100041F4F60193FD859193FF81916F0181115F
:10092000C1CF982F9F7D9554933028F40C5F1F4FB3
:10093000FFE3F9830DC0833631F0833771F08335DF
:1009400009F05BC022C0F801808189830E5F1F4FD0
:1009500044244394512C540115C03801F2E06F0E29
:10096000711CF801A080B18026FF03C0652D70E0E6
:1009700002C06FEF7FEFC5012C870E9401062C019A
:1009800083012C852F77222E17C03801F2E06F0EDD
:10099000711CF801A080B18026FF03C0652D70E0B6
:1009A00002C06FEF7FEFC5012C870E94F6052C0176
:1009B0002C852068222E830123FC1BC0832D90E010
:1009C00048165906B0F4B70180E290E00E940C0688
:1009D0003A94F4CFF50127FC859127FE81915F01C0
:1009E000B70190E00E940C0631103A94F1E04F1AE2
:1009F00051084114510471F7E5C0843611F089366D
:100A000039F5F80127FF07C06081718182819381E8
:100A10000C5F1F4F08C060817181882777FD80952A
:100A2000982F0E5F1F4F2F76B22E97FF09C090951B
:100A30008095709561957F4F8F4F9F4F2068B22EA4
:100A40002AE030E0A4010E943E06A82EA81844C067
:100A5000853729F42F7EB22E2AE030E025C0F22F10
:100A6000F97FBF2E8F36C1F018F4883579F0B4C005
:100A7000803719F0883721F0AFC02F2F2061B22EB8
:100A8000B4FE0DC08B2D8460B82E09C024FF0AC0AF
:100A90009F2F9660B92E06C028E030E005C020E107
:100AA00030E002C020E132E0F801B7FE07C060810B
:100AB0007181828193810C5F1F4F06C060817181BB
:100AC00080E090E00E5F1F4FA4010E943E06A82E1A
:100AD000A818FB2DFF77BF2EB6FE0BC02B2D2E7F47
:100AE000A51450F4B4FE0AC0B2FC08C02B2D2E7E13
:100AF00005C07A2C2B2D03C07A2C01C0752C24FF45
:100B00000DC0FE01EA0DF11D8081803311F4297EB4
:100B100009C022FF06C07394739404C0822F8678A4
:100B200009F0739423FD13C020FF06C05A2C7314E0
:100B300018F4530C5718732C731468F4B70180E23F
:100B400090E02C870E940C0673942C85F5CF7314CB
:100B500010F4371801C0312C24FF12C0B70180E314
:100B600090E02C870E940C062C8522FF17C021FFE5
:100B700003C088E590E002C088E790E0B7010CC0B0
:100B8000822F867859F021FD02C080E201C08BE2FD
:100B900027FD8DE2B70190E00E940C06A51438F401
:100BA000B70180E390E00E940C065A94F7CFAA9414
:100BB000F401EA0DF11D8081B70190E00E940C065E
:100BC000A110F5CF332009F451CEB70180E290E0B7
:100BD0000E940C063A94F6CFF7018681978102C0F5
:100BE0008FEF9FEF2C96E2E10C94B806FC01059084
:100BF000615070400110D8F7809590958E0F9F1F1F
:100C00000895FC016150704001900110D8F7809563
:100C100090958E0F9F1F08950F931F93CF93DF938F
:100C2000182F092FEB018B8181FD03C08FEF9FEF00
:100C300020C082FF10C04E815F812C813D81421710
:100C400053077CF4E881F9819F012F5F3F4F39837F
:100C50002883108306C0E885F985812F0995892BA3
:100C600029F72E813F812F5F3F4F3F832E83812FB6
:100C7000902FDF91CF911F910F910895FA01AA272C
:100C8000283051F1203181F1E8946F936E7F6E5FCF
:100C90007F4F8F4F9F4FAF4FB1E03ED0B4E03CD07D
:100CA000670F781F891F9A1FA11D680F791F8A1F60
:100CB000911DA11D6A0F711D811D911DA11D20D0C7
:100CC00009F468943F912AE0269F11243019305D81
:100CD0003193DEF6CF010895462F4770405D419372
:100CE000B3E00FD0C9F7F6CF462F4F70405D4A33BF
:100CF00018F0495D31FD4052419302D0A9F7EACF87
:100D0000B4E0A6959795879577956795BA95C9F7B5
:100D100000976105710508959B01AC010A2E0694A8
:100D20005795479537952795BA95C9F7620F731F61
:100D3000841F951FA01D08952F923F924F925F929E
:100D40006F927F928F929F92AF92BF92CF92DF92DB
:100D5000EF92FF920F931F93CF93DF93CDB7DEB740
:100D6000CA1BDB0B0FB6F894DEBF0FBECDBF0994D4
:100D70002A88398848885F846E847D848C849B842B
:100D8000AA84B984C884DF80EE80FD800C811B8139
:100D9000AA81B981CE0FD11D0FB6F894DEBF0FBE68
:0A0DA000CDBFED010895F894FFCFD8
:0C0DAA000F03494352313A202564000039
:00000001FF
