:100000000C9464000C9481000C9481000C94810089
:100010000C9481000C9481000C9481000C9481005C
:100020000C9481000C9481000C9481000C9481004C
:100030000C9481000C9481000C9481000C9481003C
:100040000C9481000C9481000C9481000C9481002C
:100050000C9481000C9481000C948601510A802A32
:100060000000000A510A000059551801111E111B09
:10007000500B411B411F1101511F511B000000007B
:1000800000000000000000000000510F91394114F1
:100090009131411E410E411D500F802010154886A0
:1000A0004014780570855115510E5195518E21904F
:1000B00081205015484450C528C028200950000010
:1000C000000000000000000011241FBECFEFD4E0AC
:1000D000DEBFCDBF11E0A0E0B1E0EEE7F4E002C08A
:1000E00005900D92AE30B107D9F711E0AEE0B1E066
:1000F00001C01D92A134B107E1F70E9433020C94B4
:100100003D020C94000020E08A3018F02F5F8A50E6
:10011000FBCF90E1299F90011124822B0895843612
:1001200040F09CE9980F943638F0885C22E030E08B
:1001300006C020E030E003C0892F21E030E044E039
:10014000220F331F4A95E1F78A3020F02F5F3F4F8F
:100150008A50FACF94E0220F331F9A95E1F7A90154
:10016000482BCA010895209111012111FCCFA7E26B
:10017000B1E020E030E0422FFC01E20FF31FE491F8
:10018000EE2341F02F5F3F4F2A31310511F0ED93FF
:10019000F2CF49E1E42FF0E0E95DFE4F10824730F5
:1001A00048F081E0809312011092400183E0809337
:1001B000100104C0109212011092400181E080935E
:1001C00011010895209111012111FCCFFC01A7E23A
:1001D000B1E080E09191992329F0893119F09D9344
:1001E0008F5FF8CFE82FF0E0E95DFE4F1082873097
:1001F00048F081E0809312011092400183E08093E7
:10020000100104C0109212011092400181E080930D
:1002100011010895893128F4E82FF0E0E95DFE4FDF
:1002200060830895E7E2F1E080E2819391E0E034B9
:10023000F907D9F7089580930E010895909111015F
:100240009111FCCF60931201109240018093110133
:10025000089510920F0108956630A0F596ED980F5D
:10026000913568F4813608F08F7D8A5290E0880FCE
:10027000991F845A9F4FFC012591349102C020E0C0
:1002800030E0A62FA17060FF02C07FE001C070EFD8
:100290006695E62FF0E0ED5EFE4FCF014496522FBB
:1002A0005F7044E0369527954A95E1F7AA2311F04F
:1002B0005295507F40814723452B40833596E81760
:1002C000F90769F7089591E0811101C090E09195D7
:1002D000E3E1F1E0919381E0E732F807D9F708957F
:1002E00080E00E9463018FE08093E70087EB8093BA
:1002F000E50087E08093E600E4EEF0E080EC8083A8
:1003000080818860808310921101089578941F92F3
:100310000F920FB60F921124FF920F931F932F93FA
:100320003F934F935F936F937F938F939F93AF937D
:10033000BF93CF93DF93EF93FF938091010181509F
:100340008093010190911201992371F081110EC0E7
:1003500080911001811104C081E08093110106C0D9
:1003600081508093100102C01092400180911101D0
:10037000813009F051C0F0900F01C0E0D0E010E0F2
:1003800000E06C2F809140019E01280F311D87FDF8
:100390003A9537FD15C0111113C080914001FE013F
:1003A000E95DFE4FE80FF11D87FDFA958081082F6A
:1003B000001F0027001F8F7721F411E01C0F01C0E0
:1003C00080E2002321F034E03F1508F480E20E942F
:1003D0002C012196C630D105A1F6A3E1B1E0ECEEE7
:1003E000F0E08D918193E11581E0F807D1F78091DC
:1003F0000E01882321F081E08093F40002C0109266
:10040000F400113011F48AEF03C0809140018F5F36
:10041000809340011092110180910101811103C06C
:1004200083E08093010180910F018A3019F41092CA
:100430000F0103C08F5F80930F01FF91EF91DF9158
:10044000CF91BF91AF919F918F917F916F915F916C
:100450004F913F912F911F910F91FF900F900FBEE1
:100460000F901F9018950E947001789461E082E0CF
:0E04700091E00E94E2000000FECFF894FFCF62
:0E047E000F0348656C6C6F20576F726C640042
:00000001FF
